{
  "contractName": "GameContract",
  "abi": [
    {
      "inputs": [
        {
          "internalType": "uint256",
          "name": "_fee",
          "type": "uint256"
        }
      ],
      "stateMutability": "nonpayable",
      "type": "constructor"
    },
    {
      "anonymous": false,
      "inputs": [
        {
          "indexed": true,
          "internalType": "address",
          "name": "player",
          "type": "address"
        },
        {
          "indexed": false,
          "internalType": "uint256",
          "name": "feePaid",
          "type": "uint256"
        }
      ],
      "name": "GamePlayed",
      "type": "event"
    },
    {
      "inputs": [],
      "name": "fee",
      "outputs": [
        {
          "internalType": "uint256",
          "name": "",
          "type": "uint256"
        }
      ],
      "stateMutability": "view",
      "type": "function"
    },
    {
      "inputs": [],
      "name": "owner",
      "outputs": [
        {
          "internalType": "address",
          "name": "",
          "type": "address"
        }
      ],
      "stateMutability": "view",
      "type": "function"
    },
    {
      "inputs": [
        {
          "internalType": "address",
          "name": "",
          "type": "address"
        }
      ],
      "name": "players",
      "outputs": [
        {
          "internalType": "address",
          "name": "playerAddress",
          "type": "address"
        },
        {
          "internalType": "uint256",
          "name": "gamesPlayed",
          "type": "uint256"
        }
      ],
      "stateMutability": "view",
      "type": "function"
    },
    {
      "inputs": [
        {
          "internalType": "uint256",
          "name": "_fee",
          "type": "uint256"
        }
      ],
      "name": "setFee",
      "outputs": [],
      "stateMutability": "nonpayable",
      "type": "function"
    },
    {
      "inputs": [],
      "name": "playGame",
      "outputs": [],
      "stateMutability": "payable",
      "type": "function"
    },
    {
      "inputs": [],
      "name": "withdraw",
      "outputs": [],
      "stateMutability": "nonpayable",
      "type": "function"
    },
    {
      "inputs": [],
      "name": "getBalance",
      "outputs": [
        {
          "internalType": "uint256",
          "name": "",
          "type": "uint256"
        }
      ],
      "stateMutability": "view",
      "type": "function"
    }
  ],
  "bytecode": "0x608060405234801561001057600080fd5b50604051610a67380380610a67833981810160405281019061003291906100ba565b336000806101000a81548173ffffffffffffffffffffffffffffffffffffffff021916908373ffffffffffffffffffffffffffffffffffffffff16021790555080600181905550506100e7565b600080fd5b6000819050919050565b61009781610084565b81146100a257600080fd5b50565b6000815190506100b48161008e565b92915050565b6000602082840312156100d0576100cf61007f565b5b60006100de848285016100a5565b91505092915050565b610971806100f66000396000f3fe60806040526004361061008d576000357c0100000000000000000000000000000000000000000000000000000000900480638da5cb5b1161006b5780638da5cb5b146100fd578063af89973514610128578063ddca3f4314610132578063e2eb41ff1461015d5761008d565b806312065fe0146100925780633ccfd60b146100bd57806369fe0e2d146100d4575b600080fd5b34801561009e57600080fd5b506100a761019b565b6040516100b4919061062c565b60405180910390f35b3480156100c957600080fd5b506100d26101ba565b005b3480156100e057600080fd5b506100fb60048036038101906100f69190610678565b6102c8565b005b34801561010957600080fd5b50610112610360565b60405161011f91906106e6565b60405180910390f35b610130610384565b005b34801561013e57600080fd5b506101476105c9565b604051610154919061062c565b60405180910390f35b34801561016957600080fd5b50610184600480360381019061017f919061072d565b6105cf565b60405161019292919061075a565b60405180910390f35b60003073ffffffffffffffffffffffffffffffffffffffff1631905090565b60008054906101000a900473ffffffffffffffffffffffffffffffffffffffff1673ffffffffffffffffffffffffffffffffffffffff163373ffffffffffffffffffffffffffffffffffffffff1614610248576040517f08c379a000000000000000000000000000000000000000000000000000000000815260040161023f906107e0565b60405180910390fd5b60008054906101000a900473ffffffffffffffffffffffffffffffffffffffff1673ffffffffffffffffffffffffffffffffffffffff166108fc3073ffffffffffffffffffffffffffffffffffffffff16319081150290604051600060405180830381858888f193505050501580156102c5573d6000803e3d6000fd5b50565b60008054906101000a900473ffffffffffffffffffffffffffffffffffffffff1673ffffffffffffffffffffffffffffffffffffffff163373ffffffffffffffffffffffffffffffffffffffff1614610356576040517f08c379a000000000000000000000000000000000000000000000000000000000815260040161034d9061084c565b60405180910390fd5b8060018190555050565b60008054906101000a900473ffffffffffffffffffffffffffffffffffffffff1681565b6001543410156103c9576040517f08c379a00000000000000000000000000000000000000000000000000000000081526004016103c0906108b8565b60405180910390fd5b600073ffffffffffffffffffffffffffffffffffffffff16600260003373ffffffffffffffffffffffffffffffffffffffff1673ffffffffffffffffffffffffffffffffffffffff16815260200190815260200160002060000160009054906101000a900473ffffffffffffffffffffffffffffffffffffffff1673ffffffffffffffffffffffffffffffffffffffff160361051f5760405180604001604052803373ffffffffffffffffffffffffffffffffffffffff1681526020016000815250600260003373ffffffffffffffffffffffffffffffffffffffff1673ffffffffffffffffffffffffffffffffffffffff16815260200190815260200160002060008201518160000160006101000a81548173ffffffffffffffffffffffffffffffffffffffff021916908373ffffffffffffffffffffffffffffffffffffffff160217905550602082015181600101559050505b6001600260003373ffffffffffffffffffffffffffffffffffffffff1673ffffffffffffffffffffffffffffffffffffffff16815260200190815260200160002060010160008282546105729190610907565b925050819055503373ffffffffffffffffffffffffffffffffffffffff167f5cf252cfe7d6524b0fd4e37008a2aa681dd2af06b44df112e00da3835515a311346040516105bf919061062c565b60405180910390a2565b60015481565b60026020528060005260406000206000915090508060000160009054906101000a900473ffffffffffffffffffffffffffffffffffffffff16908060010154905082565b6000819050919050565b61062681610613565b82525050565b6000602082019050610641600083018461061d565b92915050565b600080fd5b61065581610613565b811461066057600080fd5b50565b6000813590506106728161064c565b92915050565b60006020828403121561068e5761068d610647565b5b600061069c84828501610663565b91505092915050565b600073ffffffffffffffffffffffffffffffffffffffff82169050919050565b60006106d0826106a5565b9050919050565b6106e0816106c5565b82525050565b60006020820190506106fb60008301846106d7565b92915050565b61070a816106c5565b811461071557600080fd5b50565b60008135905061072781610701565b92915050565b60006020828403121561074357610742610647565b5b600061075184828501610718565b91505092915050565b600060408201905061076f60008301856106d7565b61077c602083018461061d565b9392505050565b600082825260208201905092915050565b7f4f6e6c7920746865206f776e65722063616e2077697468647261770000000000600082015250565b60006107ca601b83610783565b91506107d582610794565b602082019050919050565b600060208201905081810360008301526107f9816107bd565b9050919050565b7f4f6e6c7920746865206f776e65722063616e2073657420746865206665650000600082015250565b6000610836601e83610783565b915061084182610800565b602082019050919050565b6000602082019050818103600083015261086581610829565b9050919050565b7f496e73756666696369656e7420676173206665652073656e7400000000000000600082015250565b60006108a2601983610783565b91506108ad8261086c565b602082019050919050565b600060208201905081810360008301526108d181610895565b9050919050565b7f4e487b7100000000000000000000000000000000000000000000000000000000600052601160045260246000fd5b600061091282610613565b915061091d83610613565b9250828201905080821115610935576109346108d8565b5b9291505056fea2646970667358221220668239c8e747ca3d2fa7505f8b032b8780aae74bbf0badbc9637c08d00fe410d64736f6c63430008150033",
  "immutableReferences": {},
  "source": "// SPDX-License-Identifier: MIT\r\npragma solidity ^0.8.0;\r\n\r\ncontract GameContract {\r\n    address public owner;\r\n    uint public fee; // Fixed fee for playing the game\r\n\r\n    struct Player {\r\n        address playerAddress;\r\n        uint gamesPlayed;\r\n    }\r\n\r\n    mapping(address => Player) public players;\r\n\r\n    event GamePlayed(address indexed player, uint feePaid);\r\n\r\n    constructor(uint _fee) {\r\n        owner = msg.sender;\r\n        fee = _fee; // Initialize game fee\r\n    }\r\n\r\n    function setFee(uint _fee) public {\r\n        require(msg.sender == owner, \"Only the owner can set the fee\");\r\n        fee = _fee;\r\n    }\r\n\r\n    function playGame() public payable {\r\n        require(msg.value >= fee, \"Insufficient gas fee sent\");\r\n\r\n        if (players[msg.sender].playerAddress == address(0)) {\r\n            players[msg.sender] = Player(msg.sender, 0);\r\n        }\r\n\r\n        players[msg.sender].gamesPlayed += 1;\r\n\r\n        emit GamePlayed(msg.sender, msg.value);\r\n    }\r\n\r\n    function withdraw() public {\r\n        require(msg.sender == owner, \"Only the owner can withdraw\");\r\n        payable(owner).transfer(address(this).balance);\r\n    }\r\n\r\n    function getBalance() public view returns (uint) {\r\n        return address(this).balance;\r\n    }\r\n}\r\n",
  "sourcePath": "D:\\blockchain-game\\contracts\\GameContract.sol",
  "compiler": {
    "name": "solc",
    "version": "0.8.21+commit.d9974bed.Emscripten.clang"
  },
  "schemaVersion": "3.4.16",
  "updatedAt": "2024-12-30T18:27:40.962Z",
  "devdoc": {
    "kind": "dev",
    "methods": {},
    "version": 1
  },
  "userdoc": {
    "kind": "user",
    "methods": {},
    "version": 1
  }
}